:1000000025C0CDC5CCC529C5CAC5C9C5C8C5C7C5C4
:10001000C6C5C5C5C4C5C3C5C2C5C1C5C0C5BFC5A4
:10002000BEC5BDC5BCC5BBC5BAC5B9C5B8C5B7C5D4
:10003000B6C5B5C53E003E4A803E4A3E4B000BA8C1
:100040003E4B3E4D803E4D3E53000BA911241FBE3A
:10005000CFEFCDBFDFE3DEBFE4E3F0E040E017C069
:10006000B591A59135912591059107FD0CC095910C
:100070008591EF01F92FE82F05900D92A217B30794
:10008000D9F7FE0104C01D92A217B307E1F7EC34C3
:0C009000F40731F7ABD365C5F894FFCF3F
:10009C00EF920F9380914F3E8230E1F018F4813053
:1000AC0041F07CC0833009F449C0843009F44DC060
:1000BC0075C020914A3EE22E022F43E150E060E0F1
:1000CC0070E080E09EE3AED480E09EE379D48AE0D9
:1000DC0052D264C020914A3EE22E022F43E150E0FE
:1000EC0060E070E080E09EE39DD480E09EE368D405
:1000FC0080914C3E882319F080E53DD202C084E10A
:10010C003AD280913D3E882319F081E075D146C0EA
:10011C008091413E882319F080E06ED13FC08091E0
:10012C00463E8823D9F180914C3E882319F01092D9
:10013C004C3E34C081E080934C3E30C083E01BD2F7
:10014C0082D380E09EE33CD429C0EE24EA9400E004
:10015C002FEF43E150E060E070E080E09EE362D47A
:10016C0080E009D280E09EE32BD48091473E882327
:10017C00A9F08091493EC2D32FEF88E09DE3215036
:10018C0080409040E1F700C000002FEF88E09DE335
:10019C00215080409040E1F700C000000F91EF909B
:0201AC000895B4
:1001AE000BC0CAD440F0C1D430F021F45F3F19F037
:1001BE00D8C45111C9C4E5C4C3D398F39923C9F364
:1001CE005523B1F3951B550BBB27AA27621773074F
:1001DE00840738F09F5F5F4F220F331F441FAA1F03
:1001EE00A9F333D00E2E3AF0E0E830D091505040C3
:1001FE00E695001CCAF729D0FE2F27D0660F771F71
:10020E00881FBB1F261737074807AB07B0E809F052
:10021E00BB0B802DBF01FF2793585F4F2AF09E3FE7
:10022E00510568F09EC490C45F3FECF3983EDCF33A
:10023E00869577956795B795F7959F5FC9F7880F60
:10024E00911D9695879597F90895E1E0660F771FB2
:10025E00881FBB1F621773078407BA0720F0621B43
:0E026E00730B840BBA0BEE1F88F7E095089512
:10027C0090E088ED84BF909361002FEF88E09DE3C0
:10028C00215080409040E1F700C00000E0E0F4E035
:10029C0080E48183A0E2B4E021E011962C931197C5
:1002AC00868316962C93169782E0828381898160CF
:1002BC00818B84E0828392899160928B98E0928307
:1002CC0033893360338B30E2328330E13283948B69
:1002DC00958B11968C93119715968C93159730E8F6
:1002EC003283878BE0E0F6E0108232813066328315
:1002FC0030813160308311962C931197E0E0FAE055
:10030C0023E121832FE33FE126A337A310A611A6F7
:10031C00908390819160908315968C93809141018C
:10032C0080FDFCCFE0E4F1E081E0878380831086E0
:04033C001186089589
:100340000AC0FAD328F0FFD318F0952309F010C49F
:100350001FC4112400C4FBD2A0F3959FD1F3950FC5
:1003600050E0551F629FF001729FBB27F00DB11D39
:10037000639FAA27F00DB11DAA1F649F6627B00DC9
:10038000A11D661F829F2227B00DA11D621F739FB2
:10039000B00DA11D621F839FA00D611D221F749FC0
:1003A0003327A00D611D231F849F600D211D822F07
:1003B000762F6A2F11249F5750408AF0E1F088234E
:1003C0004AF0EE0FFF1FBB1F661F771F881F91505B
:1003D0005040A9F79E3F510570F0CAC3BCC35F3FB0
:1003E000ECF3983EDCF3869577956795B795F7958E
:1003F000E7959F5FC1F7FE2B880F911D9695879516
:0404000097F90895CB
:10040400EF920F93813069F5E12C05EA2FEF49E073
:1004140050E060E070E080E09EE308D320914A3E23
:10042400E22E022F43E150E069E070E080E09EE3B9
:10043400FDD280E09EE3C8D280E991E01ED32091F2
:100444004A3EE22E022F44E150E060E070E080E09A
:100454009EE3ECD280E09EE3B7D280E991E00DD335
:100464002CC0E12C05EA2FEF43E150E069E070E095
:1004740080E09EE3DBD220914A3EE22E022F49E047
:1004840050E060E070E080E09EE3D0D280E09EE344
:100494009BD280E991E0F1D220914A3EE22E022FD4
:1004A40044E150E060E070E080E09EE3BFD280E091
:1004B4009EE38AD280E991E0E0D20F91EF90089513
:1004C4000F931F93CF93DF93F8941092443E1092AE
:1004D400453E1092463E1092473E1092403E109286
:1004E400413E1092423E1092433E10923C3E109286
:1004F4003D3E10923E3E10923F3EE0E0F4E0C08567
:100504002FE788E391E0215080409040E1F700C05C
:1005140000008085C8132DC02FD38C01C2FD03C0F9
:1005240081E08093413EC1FD03C081E080933D3E64
:1005340023D3EC0106C020D38C1B9D0B893E934032
:1005440020F48091080483FFF6CF16D3801B910B0F
:100554008233910578F0883522E0920720F481E017
:100564008093463E06C08835924018F081E080931F
:0E057400473E7894DF91CF911F910F9108952B
:1005820085360CF084E690914B3E9817E4F411C046
:1005920060E5629FA001639F500D11244093280AD9
:1005A2005093290AEFE0F7E23197F1F700C000001B
:1005B2009F5F292F30E0482F082E000C550B421761
:1005C200530734F722C0891704F516C060E5629F0D
:1005D200A001639F500D11244093280A5093290AC9
:1005E200FFE728E331E0F15020403040E1F700C05E
:1005F2000000992351F09150292F30E0482F082E06
:10060200000C550B241735070CF780934B3E0895C9
:10061200882309F421C080914E3EE0E0F4E0858316
:1006220000000000000000000000000000000000C8
:1006320000000000000000000000000086830000AF
:1006420000000000000000000000000000000000A8
:10065200000000000000089580914E3EE0E0F4E0CA
:100662008583000000000000000000000000868377
:100672000000000000000000000000000000000078
:100682000000000000000000000000000000000068
:06069200000000000895C5
:10069800E89409C097FB3EF4909580957095619514
:1006A8007F4F8F4F9F4F9923A9F0F92F96E9BB27CA
:1006B8009395F695879577956795B795F111F8CF46
:1006C800FAF4BB0F11F460FF1BC06F5F7F4F8F4FB1
:1006D8009F4F16C0882311F096E911C0772321F0A7
:1006E8009EE8872F762F05C0662371F096E8862F3F
:1006F80070E060E02AF09A95660F771F881FDAF796
:0A070800880F9695879597F90895DC
:10071200CF92DF92EF920F93CF93E12C00E020E093
:1007220044E150E060E070E080E09EE380D1C0E010
:100732001FC0CC2ED12C0F2EF1EAEF2EF02D01E2AC
:100742002FE0A60160E070E080E09EE370D163E1FB
:1007520070E06C197D092FE044E150E080E09EE3F7
:1007620066D180E09EE331D186E990E087D1CF5F08
:10077200CA30F8F2CF910F91EF90DF90CF900895A9
:100782008BE08093060690E060E070E011C081E0AB
:100792008093080680910B0680FFFCCFE0E0F6E034
:1007A20083858160838720893189620F731F9F5FF0
:1007B2009A3068F380E090E06EDF20E030E040E2C3
:1007C20051E4E8D120E030EC4FE754E4E3D120E0FB
:1007D20030E040EA50E4E0D12AE939E949E850E45E
:0A07E200DBD1D0D16093493E0895A9
:1007EC009CD12FEF84E39CE0215080409040E1F7B6
:1007FC0000C0000088DFE12C00E020E044E150E084
:10080C0060E070E080E09EE30DD156DE8091473EC3
:10081C00882331F010924D3E84E08093260403C06F
:10082C0084E080932504E9D054D1A5DF31DC44D198
:10083C008091483E882319F03FDE1092483E8AE0B2
:06084C0090E017D1F0CF8F
:10085200EF920F93CF93C0E024C06C2F70E0AB01F6
:100862004F5F5F4FE090503E0091513E2091523ECB
:1008720080E09EE3DCD08091523E85508093523ED0
:100882008091513E8D5F8093513E8091503E8F5FAB
:100892008093503E80E09EE398D082E390E0EED0D9
:0E08A200CF5FC431D0F2CF910F91EF90089547
:1008B00056D088F09F5790F0B92F9927B751A0F0E4
:1008C000D1F0660F771F881F991F1AF0BA95C9F7E4
:1008D00012C0B13081F03ED1B1E008953BC1672F25
:1008E000782F8827B85F39F0B93FCCF38695779594
:1008F0006795B395D9F73EF490958095709561957D
:080900007F4F8F4F9F4F0895B8
:10090800FF920F931F93CF93DF93F82E84E0809389
:10091800260480E032DEC0E00EC000E214E0D4E03D
:10092800F801D68384EF91E0A6D0F801D58384EF4F
:1009380091E0A1D0CF5FCF1580F3DF91CF911F91C8
:060948000F91FF900895DD
:10094E0057FD9058440F551F59F05F3F71F0479572
:10095E00880F97FB991F61F09F3F79F08795089557
:10096E00121613061406551FF2CF4695F1DF08C076
:10097E00161617061806991FF1CF86957105610593
:04098E00089408952C
:100992001F93CF93DF93182FC7E0D0E010C0812FB1
:1009A20090E00C2E02C0959587950A94E2F780FF9D
:1009B20003C081E02DDE02C080E02ADE2197DD2324
:0A09C20074F7DF91CF911F910895A3
:1009CC000F931F93CF938C01F894C0E00EC0EC2FC3
:1009DC00F0E0CF01880F991FE80FF91FE00FF11F0E
:1009EC0042816181808182D0CF5FC43180F38AD013
:0A09FC007894CF911F910F91089598
:100A060080913D3E882349F08091473E882329F016
:100A160080914F3E8F5F80934F3E80914F3E853051
:0A0A260018F081E080934F3E089520
:100A3000EF920F930CC0FB01EE0FFF1FE60FF71FA5
:100A4000E050F24C00832183E2826F5F7F4F641796
:0A0A5000750788F30F91EF900895E9
:100A5A001F920F920FB60F9211248F938FEF8093EC
:100A6A00090481E08093483E8F910F900FBE0F904A
:040A7A001F9018951C
:100A7E000F931F93CF93DF938C0179D0EC0177D036
:100A8E008C1B9D0B80179107D0F3DF91CF911F9197
:040A9E000F91089517
:100AA200092E0394000C11F4882352F0BB0F40F47A
:100AB200BF2B11F460FF04C06F5F7F4F8F4F9F4FBA
:020AC200089595
:100AC400E4E4FEE312821382E0E4FEE31282138282
:0A0AD400ECE3FEE3128213820895A2
:100ADE0080914C3E811103C098EC90934A3E813038
:0A0AEE0019F482E380934A3E089554
:100AF800CF93DF93D62FC42F48DF8D2F46DF8C2F5F
:080B080044DFDF91CF91089555
:100B100080914E3E8093060483EF91E00197F1F7B8
:060B200000C00000089572
:100B2600CEDF81E080934D3EA6DB789481E090E0B5
:020B3600089520
:0E0B380000240A9416161706180609060895DA
:0E0B460000240A9412161306140605060895DC
:0E0B5400E894BB2766277727CB0197F9089511
:0E0B6200EC011ED01CD0CE011CD0CE011BD049
:0C0B700097F99F6780E870E060E008954E
:0A0B7C00809148019091490108950D
:0A0B860094DE6894B111E4CF0895E5
:060B90009FEF80EC0895C8
:040B96000BDB84CF22
:040B9A00D2DB82CF59
:020B9E0030CA5B
:020BA0000895B6
:020BA2000895B4
:020BA4000895B2
:020BA60078DAFB
:010BA80064E8
:010BA900014A
:010BAA00400A
:010BAB000148
:010BAC001E2A
:010BAD00FF48
:010BAE0064E2
:00000001FF
