:1000000025C04FC64EC6ABC54CC64BC64AC649C630
:1000100048C647C646C645C644C643C642C641C68C
:1000200040C63FC63EC63DC63CC63BC63AC639C6BC
:1000300038C637C63E003E4A803E4A3E4B000CACB6
:100040003E4B3E4D803E4D3E53000CAD11241FBE35
:10005000CFEFCDBFDFE3DEBFE4E3F0E040E017C069
:10006000B591A59135912591059107FD0CC095910C
:100070008591EF01F92FE82F05900D92A217B30794
:10008000D9F7FE0104C01D92A217B307E1F7EC34C3
:0C009000F40731F72AD4E7C5F894FFCF3D
:10009C00EF920F9380914F3E8230E1F018F4813053
:1000AC0041F07CC0833009F449C0843009F44DC060
:1000BC0075C020914A3EE22E022F43E150E060E0F1
:1000CC0070E080E09EE330D580E09EE3FBD48AE0D4
:1000DC00C2D264C020914A3EE22E022F43E150E08E
:1000EC0060E070E080E09EE31FD580E09EE3EAD400
:1000FC0080914C3E882319F080E5ADD202C084E19A
:10010C00AAD280913D3E882319F081E0E5D146C00A
:10011C008091413E882319F080E0DED13FC0809170
:10012C00463E8823D9F180914C3E882319F01092D9
:10013C004C3E34C081E080934C3E30C083E08BD287
:10014C0001D480E09EE3BED429C0EE24EA9400E002
:10015C002FEF43E150E060E070E080E09EE3E4D4F8
:10016C0080E079D280E09EE3ADD48091473E882335
:10017C00A9F08091493E41D42FEF88E09DE32150B6
:10018C0080409040E1F700C000002FEF88E09DE335
:10019C00215080409040E1F700C000000F91EF909B
:0201AC000895B4
:1001AE0090E088ED84BF909361002FEF88E09DE38F
:1001BE00215080409040E1F700C00000E0E0F4E004
:1001CE0080E48183A0E2B4E021E011962C93119794
:1001DE00868316962C93169742E04283818981601E
:1001EE00818B84E0828392899160928B98E09283D6
:1001FE0033893360338B30E2328330E13283948B38
:10020E00958B11968C93119715968C93159730E8C4
:10021E003283878B30E33093A000E7E8F3E1319728
:10022E00F1F700C00000E0E0F6E010823AE036831D
:10023E0012964C93129751968C935197358334E4C2
:10024E003283208311962C931197E0E0FAE023E19C
:10025E0021832FE33FE126A337A310A611A6908397
:10026E0090819160908315968C938091410180FDD1
:10027E00FCCFE0E4F1E081E0878380831086118675
:02028E000895D1
:100290000BC0DBD440F0D2D430F021F45F3F19F032
:1002A000E9C45111DAC4F6C4D4D398F39923C9F33D
:1002B0005523B1F3951B550BBB27AA27621773076C
:1002C000840738F09F5F5F4F220F331F441FAA1F20
:1002D000A9F333D00E2E3AF0E0E830D091505040E0
:1002E000E695001CCAF729D0FE2F27D0660F771F8E
:1002F000881FBB1F261737074807AB07B0E809F070
:10030000BB0B802DBF01FF2793585F4F2AF09E3F04
:10031000510568F0AFC4A1C45F3FECF3983EDCF335
:10032000869577956795B795F7959F5FC9F7880F7D
:10033000911D9695879597F90895E1E0660F771FCF
:10034000881FBB1F621773078407BA0720F0621B60
:0E035000730B840BBA0BEE1F88F7E09508952F
:10035E000AC06DD428F072D418F0952309F083C426
:10036E0092C4112473C46ED3A0F3959FD1F3950F4D
:10037E0050E0551F629FF001729FBB27F00DB11D1B
:10038E00639FAA27F00DB11DAA1F649F6627B00DAB
:10039E00A11D661F829F2227B00DA11D621F739F94
:1003AE00B00DA11D621F839FA00D611D221F749FA2
:1003BE003327A00D611D231F849F600D211D822FE9
:1003CE00762F6A2F11249F5750408AF0E1F0882330
:1003DE004AF0EE0FFF1FBB1F661F771F881F91503D
:1003EE005040A9F79E3F510570F03DC42FC45F3FAA
:1003FE00ECF3983EDCF3869577956795B795F79570
:10040E00E7959F5FC1F7FE2B880F911D96958795F7
:04041E0097F90895AD
:100422000DC00BD430F010D420F031F49F3F11F402
:100432001EF42FC40EF4E095E7FB1BC4E92F08D38A
:1004420080F3BA17620773078407950718F071F4EF
:100452009EF501C40EF4E0950B2EBA2FA02D0B01D0
:10046200B90190010C01CA01A0011124FF27591BF7
:1004720099F0593F50F4503E68F11A16F040A22FFD
:10048200232F342F4427585FF3CF4695379527956E
:10049200A795F0405395C9F77EF41F16BA0B620B6D
:1004A200730B840BBAF09150A1F0FF0FBB1F661FB4
:1004B200771F881FC2F70EC0BA0F621F731F841FF7
:1004C20048F4879577956795B795F7959E3F08F01D
:1004D200B3CF9395880F08F09927EE0F97958795DC
:0204E20008957B
:1004E400EF920F93813069F5E12C05EA2FEF49E093
:1004F40050E060E070E080E09EE31AD320914A3E31
:10050400E22E022F43E150E069E070E080E09EE3D8
:100514000FD380E09EE3DAD280E991E030D32091DA
:100524004A3EE22E022F44E150E060E070E080E0B9
:100534009EE3FED280E09EE3C9D280E991E01FD31E
:100544002CC0E12C05EA2FEF43E150E069E070E0B4
:1005540080E09EE3EDD220914A3EE22E022F49E054
:1005640050E060E070E080E09EE3E2D280E09EE351
:10057400ADD280E991E003D320914A3EE22E022FCE
:1005840044E150E060E070E080E09EE3D1D280E09E
:100594009EE39CD280E991E0F2D20F91EF9008950E
:1005A4000F931F93CF93DF93F8941092443E1092CD
:1005B400453E1092463E1092473E1092403E1092A5
:1005C400413E1092423E1092433E10923C3E1092A5
:1005D4003D3E10923E3E10923F3EE0E0F4E0C08586
:1005E4002FE788E391E0215080409040E1F700C07C
:1005F40000008085C8132DC041D38C01C2FD03C007
:1006040081E08093413EC1FD03C081E080933D3E83
:1006140035D3EC0106C032D38C1B9D0B8D3B92402D
:1006240020F48091080483FFF6CF28D3801B910B1C
:100634008233910578F0883522E0920720F481E036
:100644008093463E06C08835924018F081E080933E
:0E065400473E7894DF91CF911F910F9108954A
:1006620085360CF084E690914B3E9817E4F411C065
:1006720060E5629FA001639F500D11244093280AF8
:100682005093290AEFE0F7E23197F1F700C000003A
:100692009F5F292F30E0482F082E000C550B421780
:1006A200530734F722C0891704F516C060E5629F2C
:1006B200A001639F500D11244093280A5093290AE8
:1006C200FFE728E331E0F15020403040E1F700C07D
:1006D2000000992351F09150292F30E0482F082E25
:1006E200000C550B241735070CF780934B3E0895E9
:1006F2008AE08093060687E893E10197F1F700C04C
:10070200000090E060E070E010C081E08093080695
:1007120080910B0680FFFCCFE0E0F6E02089318972
:10072200620F731F81E083879F5F9A3070F380E0CE
:1007320090E065D020E030E040E251E4ADD220E02C
:1007420030EC4FE754E4A8D228E431EE4AE850E412
:10075200A5D22AE939E949E850E4A0D22FE135E8E7
:100762004BE85FE39BD220E030E040E05FE38DD2D4
:080772001DD16093493E08957A
:10077A00882309F421C080914E3EE0E0F4E08583AD
:10078A00000000000000000000000000000000005F
:10079A000000000000000000000000008683000046
:1007AA00000000000000000000000000000000003F
:1007BA00000000000000089580914E3EE0E0F4E061
:1007CA00858300000000000000000000000086830E
:1007DA00000000000000000000000000000000000F
:1007EA0000000000000000000000000000000000FF
:0607FA000000000008955C
:10080000E89409C097FB3EF49095809570956195AA
:100810007F4F8F4F9F4F9923A9F0F92F96E9BB2760
:100820009395F695879577956795B795F111F8CFDC
:10083000FAF4BB0F11F460FF1BC06F5F7F4F8F4F47
:100840009F4F16C0882311F096E911C0772321F03D
:100850009EE8872F762F05C0662371F096E8862FD5
:1008600070E060E02AF09A95660F771F881FDAF72C
:0A087000880F9695879597F9089573
:10087A00CF92DF92EF920F93CF93E12C00E020E02A
:10088A0044E150E060E070E080E09EE34ED1C0E0D9
:10089A001FC0CC2ED12C0F2EF1EAEF2EF02D01E243
:1008AA002FE0A60160E070E080E09EE33ED163E1C4
:1008BA0070E06C197D092FE044E150E080E09EE38E
:1008CA0034D180E09EE3FFD086E990E055D1CF5F36
:1008DA00CA30F8F2CF910F91EF90DF90CF90089540
:1008EA009FD12FEF84E39CE0215080409040E1F7B4
:1008FA0000C00000BDDFE12C00E020E044E150E050
:10090A0060E070E080E09EE310D147DE8091473ED0
:10091A00882331F010924D3E84E08093260403C070
:10092A0084E080932504ECD057D1DEDEB2DB47D1D8
:10093A008091483E882319F030DE1092483E8AE0C2
:06094A0090E01AD1F0CF8D
:10095000EF920F93CF93C0E024C06C2F70E0AB01F7
:100960004F5F5F4FE090503E0091513E2091523ECC
:1009700080E09EE3DFD08091523E85508093523ECE
:100980008091513E8D5F8093513E8091503E8F5FAC
:100990008093503E80E09EE39BD082E390E0F1D0D4
:0E09A000CF5FC431D0F2CF910F91EF90089548
:1009AE0059D088F09F5790F0B92F9927B751A0F0E2
:1009BE00D1F0660F771F881F991F1AF0BA95C9F7E5
:1009CE0012C0B13081F041D1B1E008953EC1672F20
:1009DE00782F8827B85F39F0B93FCCF38695779595
:1009EE006795B395D9F73EF490958095709561957E
:0809FE007F4F8F4F9F4F0895BA
:100A0600FF920F931F93CF93DF93F82E84E080938A
:100A1600260484EF91E0B2D080E020DEC0E00EC074
:100A260000E214E0D4E0F801D78384EF91E0A6D089
:100A3600F801D78384EF91E0A1D0CF5FCF1580F383
:0C0A4600DF91CF911F910F91FF90089558
:100A520057FD9058440F551F59F05F3F71F047956D
:100A6200880F97FB991F61F09F3F79F08795089552
:100A7200121613061406551FF2CF4695F1DF08C071
:100A8200161617061806991FF1CF8695710561058E
:040A92000894089527
:100A96001F93CF93DF93182FC7E0D0E010C0812FAC
:100AA60090E00C2E02C0959587950A94E2F780FF98
:100AB60003C081E05FDE02C080E05CDE2197DD23BB
:0A0AC60074F7DF91CF911F9108959E
:100AD0000F931F93CF938C01F894C0E00EC0EC2FBE
:100AE000F0E0CF01880F991FE80FF91FE00FF11F09
:100AF00042816181808182D0CF5FC43180F38AD00E
:0A0B00007894CF911F910F91089592
:100B0A0080913D3E882349F08091473E882329F011
:100B1A0080914F3E8F5F80934F3E80914F3E85304C
:0A0B2A0018F081E080934F3E08951B
:100B3400EF920F930CC0FB01EE0FFF1FE60FF71FA0
:100B4400E050F24C00832183E2826F5F7F4F641791
:0A0B5400750788F30F91EF900895E4
:100B5E001F920F920FB60F9211248F938FEF8093E7
:100B6E00090481E08093483E8F910F900FBE0F9045
:040B7E001F90189517
:100B82000F931F93CF93DF938C0179D0EC0177D031
:100B92008C1B9D0B80179107D0F3DF91CF911F9192
:040BA2000F91089512
:100BA600092E0394000C11F4882352F0BB0F40F475
:100BB600BF2B11F460FF04C06F5F7F4F8F4F9F4FB5
:020BC600089590
:100BC800E4E4FEE312821382E0E4FEE3128213827D
:0A0BD800ECE3FEE31282138208959D
:100BE20080914C3E811103C098EC90934A3E813033
:0A0BF20019F482E380934A3E08954F
:100BFC00CF93DF93D62FC42F48DF8D2F46DF8C2F5A
:080C0C0044DFDF91CF91089550
:100C140080914E3E8093060483EF91E00197F1F7B3
:060C240000C0000008956D
:100C2A00CEDF81E080934D3EBDDA789481E090E09A
:020C3A0008951B
:0E0C3C0000240A9416161706180609060895D5
:0E0C4A0000240A9412161306140605060895D7
:0E0C5800E894BB2766277727CB0197F908950C
:0E0C6600EC011ED01CD0CE011CD0CE011BD044
:0C0C740097F99F6780E870E060E0089549
:0A0C80008091480190914901089508
:0A0C8A005058BB27AA27C8DB89CF0A
:060C94009FEF80EC0895C3
:040C9A00FADA84CF2F
:040C9E005FDB82CFC7
:020CA200AEC9D9
:020CA4000895B1
:020CA6000895AF
:020CA8000895AD
:020CAA00F6D979
:010CAC0064E3
:010CAD000145
:010CAE004005
:010CAF000143
:010CB0001E25
:010CB100FF43
:010CB20064DD
:00000001FF
