:1000000022C049C048C0B4C046C045C044C043C077
:1000100042C041C040C03FC03EC03DC03CC03BC0EC
:100020003AC039C038C037C036C035C034C033C01C
:1000300032C031C03E003E3C803E3C3E3E0004BAF1
:100040003E3E3E4B800011241FBECFEFCDBFDFE30D
:10005000DEBFE4E3F0E040E017C0B591A591359133
:100060002591059107FD0CC095918591EF01F92F20
:10007000E82F05900D92A217B307D9F7FE0104C02F
:100080001D92A217B307E1F7E534F40731F779D0F1
:060090000CC2F894FFCF42
:02009600B4CFE5
:100098001092463E1092473E1092483E1092493EBA
:1000A8001092423E1092433E1092443E1092453EBA
:1000B80010923E3E10923F3E1092403E1092413EBA
:0200C800089599
:1000CA000F931F93CF931092463E1092473E109281
:1000DA00483E1092493E1092423E1092433E109280
:1000EA00443E1092453E10923E3E10923F3E109280
:1000FA00403E1092413EC09108042FE788E391E008
:10010A00215080409040E1F700C00000809108042F
:10011A00C81721F0CF911F910F91089510D18C012A
:10012A00C2FD03C081E08093433EC1FD03C081E06C
:10013A0080933F3E8091080483FFFCCF00D1801B4F
:10014A00910B883C910530F3883E23E0920738F002
:10015A00803A9F40F8F681E08093493EDBCF81E008
:06016A008093483ED7CF50
:100170008F938FEF8093090481E080934A3E8F91A3
:020180001895D0
:100182008ADF81E080933C3E2BD0789484E0809398
:1001920027042FEF34E38CE0215030408040E1F718
:1001A20000C000008DD0E12C00E020E044E150E0EE
:1001B20060E070E080E09EE356D186DF8091473EAA
:1001C200811110923C3E84E0809327049FEF24E348
:1001D2003CE0915020403040E1F700C00000F4CFF5
:1001E20090E088ED84BF909361002FEF88E09DE35B
:1001F200215080409040E1F700C0000080E48093ED
:10020200010421E020932104809306042093260414
:1002120082E0809302048091110481608093110432
:1002220084E08093020490911204916090931204EE
:1002320098E09093020430911304336030931304D6
:1002420030E23093020430E13093020490931404BC
:1002520090931504809321048093250430E8309311
:100262000204809317041092000630910006316058
:10027200309300062093210423E12093010A2FE307
:100282003FE12093260A3093270A1092280A1092FF
:10029200290A9093000A9091000A91609093000AB3
:1002A200809325048091410180FDFCCF81E0809301
:1002B200470180934001109248011092490108952C
:1002C200CF92DF92EF920F93CF93DF93E12C00E076
:1002D20020E044E150E060E070E080E09EE3C3D0C3
:1002E200C0E0D0E093E1C92ED12C81EAE82E01E2F0
:1002F2002FE0AE0160E070E080E09EE3B4D02FE03A
:1003020044E150E0B6016C1B7D0B80E09EE3ABD074
:1003120080E09EE37ED02091480130914901809196
:10032200480190914901821B930B84369105B8F3E1
:100332002196CA30D105C9F6DF91CF910F91EF9086
:06034200DF90CF9008954A
:0A0348008091480190914901089549
:1003520080913D3EE0E0F4E0858300000000000073
:10036200000000000000000000000000000000008B
:100372000000000000008683000000000000000072
:10038200000000000000000000000000000000006B
:020392000895CC
:1003940081111FC080913D3E809305040000000040
:1003A400000000000000000080930604000000002C
:1003B4000000000000000000000000000000000039
:1003C4000000000000000000000000000000000029
:0403D4000895BDCFFC
:1003D8000F931F93CF93DF93082F10E0C7E0D0E06F
:1003E80003C0B3DF219768F098010C2E02C0359541
:1003F80027950A94E2F720FDF4CF80E0C7DF219724
:0C04080098F7DF91CF911F910F9108959C
:10041400EF92FF920F931F93CF93DF93F894EC0125
:100424007C018CE3E80EF11C1A8109818881D2DFFA
:10043400802FD0DF812FCEDF2396CE15DF05A1F7E5
:1004440080913D3E8093060483EF91E00197F1F79C
:1004540000C000007894DF91CF911F910F91FF901D
:04046400EF90089578
:10046800EF920F9364177507B0F4FB01EE0FFF1FAF
:100478006E0F7F1FFB01E050F24CCA01880F991FD5
:10048800480F591F4050524C00832183E282339613
:0C049800E417F507C9F70F91EF900895E5
:0204A4000895B9
:0204A6000895B7
:0204A8000895B5
:0E04AA00EC01FCDFFADFCE01FADFCE0100D05C
:0204B800ECDD79
:0104BA000140
:0104BB004000
:00000001FF
